:100000000C9463000C9480000C9480000C9480008D
:100010000C9480000C9491000C9480000C9480004F
:100020000C94AF000C9480000C9480000C94F301AD
:100030000C9480000C9480000C9480000C94800040
:100040000C94C70C0C9480000C9480000C94F80263
:100050000C9480000C949B010C9480000C94800004
:100060000C9480000C9480005A025C025E026002D4
:100070006202640266020000000800020100000340
:100080000407000000000000000001020408102026
:10009000408001020408102001020408102004041A
:1000A0000404040404040202020202020303030320
:1000B000030300000000250028002B0000000000C2
:1000C000240027002A0011241FBECFEFD8E0DEBF96
:1000D000CDBF11E0A0E0B1E0ECE8F0E202C0059095
:1000E0000D92A035B107D9F725E0A0E5B1E001C038
:1000F0001D92AF3BB207E1F70E949A0E0C94441098
:100100000C9400001092B000E1EBF0E0108282E06D
:10011000808384E0809368008BBB81E080936D00D6
:1001200008951F920F920FB60F9211248F93809112
:10013000B20081508093B4001092000281E080935D
:10014000010284E087BB489B04C08093700010923A
:100150006D008F910F900FBE0F901F9018951F92FA
:100160000F920FB60F9211248F939F93EF93FF93EB
:1001700099B180910102882381F090FD05C0909192
:100180000002982B90930002880F809301028091C7
:10019000B40080538093B40018C0E091FF0181E067
:1001A0008E0F8F7390910402981741F0F0E09091B8
:1001B0000002E154FE4F90838093FF0184E08BBBEB
:1001C00081E080936D0010927000FF91EF919F91FC
:1001D0008F910F900FBE0F901F901895E0919A0588
:1001E000F0E0E756FA4F208132E1239FC00111244D
:1001F00035E0969587953A95E1F727FF03C082553C
:10020000910902C08F5B9F4F90930E0280930D0265
:1002100080910D0290910E028332910534F0803866
:10022000910524F08FE790E001C083E2909158029D
:10023000992341F090E1899F90011124309363014B
:100240002093620190915A02992351F028E0829FF5
:10025000C001112484529C4F90934902809348021C
:1002600008952091050230910202231305C03091B8
:1002700004023093030204C030910302309304025D
:100280002F5F2F7120930202FC0180E0A0910402F5
:100290009091FF01A91771F0B0E0A154BE4F9C915D
:1002A0009193909104029F5F9F73909304028F5FDC
:1002B0008A3061F7089580919F058093050281E15E
:1002C00080930F0280915B028093100280915C0208
:1002D000809311028091080290910902969587956A
:1002E00096958795809312028093130280910D0258
:1002F00080931402E5E1F2E0119282E0E132F80726
:10030000D9F787E192E00E94310180931502809134
:100310000502809316020895F894ACE7B0E01C92B1
:10032000EAE7F0E010828C9180648C9380818F6882
:100330008083789408951F920F920FB60F92112424
:100340002F938F939F9381E0809321018091780078
:100350002091790090E0922B9093090280930802FB
:100360009F918F912F910F900FBE0F901F90189516
:10037000ECE7F0E090818F70907F892B8083000004
:10038000EAE7F0E08081806480830895F894109219
:100390008000E1E8F0E010828081886080838081C5
:1003A0008260808384E690E0909389008093880047
:1003B000EFE6F0E0808182608083789408959091E8
:1003C000A5019F5F993108F090E0E92FF0E0EA5530
:1003D000FE4F80839093A5018091C100806280933D
:1003E000C100789408951F920F920FB60F921124B6
:1003F0002F933F934F935F936F937F938F939F932D
:10040000AF93BF93CF93DF93EF93FF938091340229
:10041000882331F02A985F9885B1807C85B9B7C070
:1004200090915A0280915802911152C0811150C08E
:100430005F9885B1807C85B9E0913502EF5FE093EC
:1004400035022091360230913702E730C0F4F0E0F7
:10045000EE0FFF1FEA5DFE4F80819181880F991F8B
:10046000820F931F9093370280933602808191818F
:10047000880F991F90938900809388000FC088ECA3
:100480009FEA821B930B90938900809388008FEFE3
:100490008093350210923702109236028091350215
:1004A00090E08730910508F072C0FC01EC5CFF4FD2
:1004B0000C94F40F5F9A6BC0289A69C0299A67C0A0
:1004C0002A9A65C02B9A63C02C9A61C02D9A5FC08E
:1004D00081114DC080910001882351F02A9888E550
:1004E00092E09093890080938800109200014FC0A1
:1004F0002A9A81E080930001409135028091460163
:100500004817A8F010923502209150013091510106
:1005100088EB96E5821B930B880F991F90938900B7
:1005200080938800109251011092500130C0E42F46
:10053000F0E0EE0FFF1FE85CFD4F808191818C524F
:100540009140880F991F90938900809388002081A3
:1005500031818091500190915101820F931F9093AE
:100560005101809350014F5F4093350210C080E6E7
:100570009DE69093890080938800C2E7D1E088814E
:1005800022960E94DF0181E0C43AD807C1F7FF91AB
:10059000EF91DF91CF91BF91AF919F918F917F911B
:1005A0006F915F914F913F912F910F900FBE0F90E0
:1005B0001F9018951092C50089E08093C400109296
:1005C000C0008091C20086608093C2008091C2000A
:1005D00088628093C2008091C00087FF03C0809131
:1005E000C600F9CF8091C10088608093C100089552
:1005F0001F920F920FB60F9211248F939F93EF9338
:10060000FF938091A4019091A501981769F08F5FE5
:10061000893108F080E0E82FF0E0EA55FE4F908144
:100620009093C6008093A4019091A501891305C001
:100630008091C1008F7D8093C100FF91EF919F91C8
:100640008F910F900FBE0F901F9018958FE090E044
:100650009093730180937201209152013091530164
:10066000C9019927909375018093740140915401B9
:1006700050915501CA01992763E0880F991F6A9527
:10068000E1F7232F3327822B932B909377018093CD
:1006900076012091560130915701C901E6E0880F9B
:1006A000991FEA95E1F7F5E056954795FA95E1F738
:1006B000842B952B9093790180937801C9019695AD
:1006C000879596958795992790937B0180937A01DA
:1006D0006091580170915901CB019927880F991F9A
:1006E000232F332726952695822B932B90937D01DC
:1006F00080937C0140915A0150915B01CA01992776
:10070000E4E0880F991FEA95E1F7660F672F661FEF
:10071000770B7195862B972B90937F0180937E01A9
:1007200020915C0130915D01C90199279695982F20
:10073000882797958795B4E056954795BA95E1F740
:10074000842B952B9093810180938001C90196950C
:1007500087959927909383018093820140915E0150
:1007600050915F01CA019927880F991F880F991F1F
:10077000232F33272695822B932B909385018093EB
:1007800084012091600130916101C9019927E5E060
:10079000880F991FEA95E1F7F6E056954795FA9587
:1007A000E1F7842B952B9093870180938601C901F3
:1007B000A3E096958795AA95E1F7992790938901EB
:1007C000809388012091620130916301C9019927CA
:1007D00090938B0180938A0140916401509165014F
:1007E000CA019927B3E0880F991FBA95E1F7232F23
:1007F0003327822B932B90938D0180938C01209132
:10080000660130916701C90176E0880F991F7A95DA
:10081000E1F7E5E056954795EA95E1F7842B952BAE
:1008200090938F0180938E01C90196958795969537
:100830008795992790939101809390016091680129
:1008400070916901CB019927880F991F232F3327B6
:1008500026952695822B932B90939301809392015A
:1008600040916A0150916B01CA01992724E0880FD9
:10087000991F2A95E1F7660F672F661F770B719511
:10088000862B972B909395018093940120916C0176
:1008900030916D01C90199279695982F88279795D2
:1008A000879574E0569547957A95E1F7842B952BBB
:1008B0009093970180939601C90196958795992702
:1008C000909399018093980140916E0150916F012E
:1008D000CA019927880F991F880F991F232F332743
:1008E0002695822B932B90939B0180939A012091C4
:1008F000700130917101C9019927B5E0880F991FE6
:10090000BA95E1F766E0569547956A95E1F7842B2D
:10091000952B90939D0180939C01C90173E096955E
:1009200087957A95E1F7992790939F0180939E018F
:100930001092A1011092A0011092A3011092A201A5
:10094000089542E050E064E670E08BE592E00E949A
:100950002C104CE350E06EE670E08EE592E00E94D1
:100960002C1060915D0288EC90E00C943610219878
:10097000299A5F9A8AE18A95F1F700C0199B0AC00B
:100980005F988AE18A95F1F700C0199903C0219A0E
:1009900081E00895219A80E0089525982D9A2B9A58
:1009A0008AE18A95F1F700C01D9B0AC02B988AE165
:1009B0008A95F1F700C01D9903C0259A81E008953A
:1009C000259A80E008953898409A8AE18A95F1F74F
:1009D00000C0309906C08AE18A95F1F700C081E035
:1009E000089580E008950F931F93CF93DF931F9294
:1009F000CDB7DEB78C0179830E9436107981672FDD
:100A0000C80101960F90DF91CF911F910F910C9427
:100A100036101F93CF93DF93EC010E942410182F00
:100A2000CE0101960E942410282F30E0922F8827B3
:100A3000810F911DDF91CF911F9108955C985D9872
:100A400099E0915051F087FF02C05D9A01C05D9816
:100A50005C9A00005C98880FF4CF5D9A0895EF923D
:100A6000FF920F931F93CF93DF938B01E42E5A983D
:100A700080640E941E05E801F12CCE01801B910BC1
:100A80008E159F0524F489910E941E05F6CF5A9A6F
:100A9000DF91CF911F910F91FF90EF900895CF9329
:100AA000DF931F92CDB7DEB75A9869830E941E0567
:100AB00000006981862F0E941E055A9A0F90DF91CF
:100AC000CF910895CF93C82F609133028CE00E949C
:100AD0004F0568E088E10E944F05C11103C0609195
:100AE0005B0201C063E089E00E944F056DE087E092
:100AF0000E944F0566E189E1CF910C944F0598E083
:100B000080E0880F4E9981605C9A00005C9800003C
:100B10009150B9F70895CF92DF92FF920F931F93F0
:100B2000CF93DF931F92CDB7DEB7182F062F5A98B9
:100B30008FEF99830E941E05F12EC12E9981D92E27
:100B40008C2D8F19801730F40E947F05F601819358
:100B50006F01F6CF5A9A0F90DF91CF911F910F91AD
:100B6000FF90DF90CF9008955A9880680E941E05EC
:100B70000E947F055A9A08955A980E941E055A9A13
:100B80000895CF9386E30E94BC0560919A0283E2A8
:100B90000E944F0560919B0284E20E944F05609184
:100BA0009C0285E20E944F0560E08AE00E944F05AA
:100BB00084E30E94BC0510925D024B9BFECF8BEF3D
:100BC0000E94B4058F7780939A058823B1F3682F2C
:100BD00070E08BE995E00E948B05E0919A05F0E0CA
:100BE000E656FA4F808187FFE8CF80919D058130DE
:100BF00021F78091A0058111E0CF80919E0580931F
:100C00005B0280919F0580935C02AEE5B2E0E1EA71
:100C1000F5E081918D9385E0E63AF807D1F7C5E0DC
:100C20004B9BFECF8BEF0E94B4058F7780939A0584
:100C30008823B1F3682F70E08BE995E00E948B0563
:100C400080919A0590E085569A4FFC01319720815A
:100C500027FFE6CF20919D05213011F730919E05A9
:100C600020915B023213DCCF30919F0520915C0212
:100C70003213D6CF5091A0055C13D2CF329760814A
:100C8000E1EAF5E080E090E02C2F30E0225A3D4F81
:100C9000782F4191461711F0411106C0CD3220F056
:100CA000570F50935D020CC0D901A80FB91F4C9388
:100CB00001968530910561F7CB5FCD3709F0B0CF54
:100CC0000E94A10486E3CF910C94BC0590919805F5
:100CD000980F9093980580915D02981718F0981BD3
:100CE0009093980586E30E94BC05E0919805F0E09A
:100CF000E25AFD4F808190E0FC01EE0FFF1FE80FEC
:100D0000F91FE656FD4F608183E20E944F05E09196
:100D10009805F0E0E25AFD4F808190E0FC01EE0F73
:100D2000FF1FE80FF91FE656FD4F618184E20E9424
:100D30004F05E0919805F0E0E25AFD4F808190E088
:100D4000FC01EE0FFF1FE80FF91FE656FD4F628111
:100D500085E20E944F05E0919805F0E0E25AFD4FD0
:100D600060818AE00E944F058AE30C94BC052F92B3
:100D70003F924F925F926F927F928F929F92AF922B
:100D8000BF92CF92DF92EF92FF920F931F93CF9378
:100D9000DF9380E00E946205212C312CE3E38E2E4C
:100DA000912CA12CB12C0E94110D2B013C010E9411
:100DB000110D6B017C01C418D508E608F7082091D5
:100DC0002201309123014091240150912501A8E294
:100DD000B3E20E94FA0F6C157D058E059F0588F41D
:100DE000809197058F5F80939705853640F08092BC
:100DF000220190922301A0922401B092250181E06A
:100E000041C04B9BD4CF8BEF0E94B4058F778531C7
:100E100018F480939A0503C024E120939A05609109
:100E20009A05662321F270E08BE995E00E948B051C
:100E3000E0919A05F0E0E656FA4F808187FFB7CF40
:100E40001092970580919B05813109F0B0CF909168
:100E50009C0580915B029813AACF90919D0580918B
:100E60005C029813A4CF81E090E0A0E0B0E0809312
:100E7000220190932301A0932401B093250191E0D6
:100E8000909399050E94660684E30E94BC058091B8
:100E90009905882309F493C0109299058091A505BE
:100EA000282F2F7030E0322F22279091A105292B77
:100EB0003093240220932302807FA0E18A9FC00107
:100EC00011242091A205822B909326028093250263
:100ED0008091A605282F2F7030E0322F2227909185
:100EE000A305292B3093280220932702807FB0E1AD
:100EF0008B9FC00111242091A405822B90932A027C
:100F0000809329028091AB05282F2F7030E0322F7B
:100F100022279091A705292B30932C0220932B0296
:100F2000807FE0E18E9FC00111242091A805822BD3
:100F300090932E0280932D028091AC05282F2F7064
:100F400030E0322F22279091A905292B30933002CF
:100F500020932F02807FF0E18F9FC0011124209108
:100F6000AA05822B9093320280933102C3E2D2E031
:100F700001E011E06991799180E090E00E94DB0E40
:100F800023E830EC4AE25FE30E94450F0E94AA0E7C
:100F9000AB019B012D5B32402F33364030F4F8011A
:100FA00071836083FFEF2F1A3F0A0E5F1F4F22E00D
:100FB000C333D207F9F650930B0240930A0284E63A
:100FC0002816310408F4EFCE01E011E0CBECD0E0BC
:100FD000D8016D917D918D01CE010E94F30422967E
:100FE000CB3DD105A9F7DF91CF911F910F91FF90D4
:100FF000EF90DF90CF90BF90AF909F908F907F90B9
:101000006F905F904F903F902F900895CF9364E141
:1010100089E10E944F051092800085E08093810055
:1010200082E8809333026CE087E00E944F0568E01D
:1010300088E10E944F05609133028CE00E944F05C9
:1010400086E30E94BC0560919A0283E20E944F05EC
:1010500060919B0284E20E944F0560919C0285E2B0
:101060000E944F0560E08AE00E944F058AE30E94DB
:10107000BC0584E30E94BC05C2E8809133028E3730
:1010800014F0C0933302609184007091850080E079
:1010900090E00E94DB0E20E030E543EC54E40E9437
:1010A000410F181664F4109285001092840060912C
:1010B00033026B5F609333028CE00E944F054B9BC1
:1010C000DCCF8BEF0E94B4058F7780939A0588233D
:1010D000A1F2682F70E08BE995E00E948B05E0910A
:1010E0009A05F0E0E656FA4F808187FFC6CF9091CF
:1010F0009D05913011F68F77823308F0BECFCF91E6
:1011000008950F931F93CF93DF930E94E30480937E
:10111000590281112CC042E050E064E670E08BE59A
:1011200092E00E9414104CE350E06EE670E08EE511
:1011300092E00E94141088EC90E00E9424108093AA
:101140005D0289EC90E00E9424108093330201E05C
:1011500011E0CBECD0E0CE010E940905F8018193AB
:1011600091938F012296CB3DD105A9F720C0439AD8
:101170000E94060881E00E9462056091330289ECBA
:1011800090E00E9436100E94C10543980E94B70665
:10119000439A64EF71E080E090E00E94340D439840
:1011A00064EF71E080E090E00E94340DF1CFDF91B8
:1011B000CF911F910F9108950F931F93CF93DF93BA
:1011C0001F92CDB7DEB78C018BE369830E94BC050B
:1011D0004981B8018FE30E942F0585E30F90DF91CD
:1011E000CF911F910F910C94BC0580E30E94BC0528
:1011F0008FE99FE00197F1F700C00000419895E06A
:101200009A95F1F70000429885E08A95F1F7000081
:101210008EE00E94B40521E030E0843C11F020E033
:1012200030E0C90108951F93CF93DF930E94F50822
:1012300061E082E00E944F056CE087E10E944F056B
:1012400068E188E10E944F0569E186E00E944F0550
:1012500065E088E00E944F056FEF8EE30E944F0526
:1012600068E08BE00E944F0560E08CE00E944F0533
:101270006CE58DE00E944F0566E78EE00E944F0509
:1012800067E28FE00E944F056AEA80E10E944F0505
:1012900069E381E10E944F0561E182E10E944F050F
:1012A00063E283E10E944F056AE784E10E944F05F3
:1012B00062E485E10E944F0566E189E10E944F05E5
:1012C0006CE68AE10E944F0563E08BE10E944F05C6
:1012D00060E48CE10E944F0561E98DE10E944F05B9
:1012E00066E581E20E944F0560E182E20E944F05BF
:1012F00069EA83E20E944F056AE084E20E944F059A
:1013000060E085E20E944F0561E186E20E944F05A0
:1013100069E589E20E944F0568E88CE20E944F056A
:1013200061E38DE20E944F056BE08EE20E944F0563
:1013300067E083E00E944F0560E089E00E944F056E
:1013400086E30E94BC0564E087E00E944F0560E0F0
:101350008CE00E944F05CCE9D2E010E086E30E94C9
:10136000BC05612F8AE00E944F0583E30E94BC0503
:1013700084E893E00E945C0D83E20E94B405FE01C4
:101380003297808384E20E94B405FE013197808306
:1013900085E20E94B40588831F5F23961F3FF1F604
:1013A000DF91CF911F910895469A8AB184638AB9DB
:1013B000539856985C985D983B9A5A9A579A209AF7
:1013C000219A229A239A249A259A389A8FE39CE9A3
:1013D0000197F1F700C000000E9413090E948108E4
:1013E00060E08EE00E942A0E80E00E9462050E946A
:1013F000B70480935A020E94CD04809358020E9441
:10140000820080915A028823A1F089E080934601EE
:1014100080E090E02CED35E0FC01EE0FFF1FE85C72
:10142000FD4F31832083019689309105A9F72A9ACF
:1014300010C080915802882361F0E2E6F1E080E07C
:1014400094E08193919321E0E237F207D1F70E9473
:10145000DA020E948C0181E00E94660684E30E9409
:10146000BC050C94C601CF93DF93CDB7DEB72897A8
:101470000FB6F894DEBF0FBECDBF28E0E7E4F1E081
:10148000DE01119601900D922A95E1F788309105C1
:1014900014F087E090E0E1E0F0E0EC0FFD1FE80FD2
:1014A000F91F60818EE328960FB6F894DEBF0FBE59
:1014B000CDBFDF91CF910C944F054F925F926F9209
:1014C0007F928F929F92AF92BF92CF92DF92EF92D4
:1014D000FF920F931F93CF93DF9300D000D0CDB72F
:1014E000DEB70E94110D69837A838B839C83809180
:1014F0009705853608F465C070905802E1E0EE2E3D
:10150000E1E0FE2E02E511E0A12CB12CF0ECCF2E93
:10151000F3E0DF2ED7018D919D917D019501220F82
:10152000331FF901EA5DFE4F91838083F901E85C86
:10153000FD4F91838083772061F18137B3E09B0772
:1015400038F08D35E8E09E0728F08CE598E002C081
:1015500081E793E0BC016157734080E090E00E9416
:10156000DB0E2DEC3CEC4CEC5FE30E94450F0E943F
:10157000AF0ED8016D937C936115B8E07B0710F036
:101580006FEF77E0F801718360831092630110922E
:101590006201D0924902C0924802FFEFAF1ABF0A1F
:1015A0000E5F1F4F28E0A216B10409F0B3CF7720D9
:1015B00041F00E9426038CE090E09093A10180937B
:1015C000A00114E1412C512C320143940E94110DD1
:1015D0006B017C018090220190902301A090240156
:1015E000B090250189819A81AB81BC81C81AD90A42
:1015F000EA0AFB0AA8E2B3E2A50194010E94FA0FED
:101600006C157D058E059F0570F58A9489288A28BA
:101610008B28A9F4809197058F5F80939705853675
:1016200060F082E390E0A0E0B0E08093220190932C
:101630002301A0932401B093250181E011C0809182
:101640000602909107029C012F5F3F4F30930702E3
:101650002093060280FF02C0439801C0439A8DE0A8
:101660000E9466064AC04B9BB1CF8BEF0E94B40527
:101670008F77853118F480939A0502C010939A05EC
:1016800060919A05662309F4A1CF70E08BE995E09B
:101690000E948B05E0919A05F0E0E656FA4F8081B2
:1016A00087FF94CF4092220150922301609224013F
:1016B000709225011092970580919B05813109F068
:1016C00085CF90919C0580915B0298137FCF90917C
:1016D0009D0580915C02981379CF80919E0583705F
:1016E000823019F481E080930C0281E080939905A7
:1016F000439A0E9466061092340280910C0288235D
:1017000009F448C010920C020E94110D6B017C017B
:101710000E94EE0080915A02882341F060910D02F0
:1017200070910E0277278BE00E94A20D80915802E3
:10173000882341F060910D0270910E02772789E0B5
:101740000E94A20D80912101813029F41092210183
:1017500080E00E94B8010E945B010E94110D6C198B
:101760007D098E099F096436754081059105A8F3AE
:1017700087E090E00E94330A8AE30E94BC0586E37A
:101780000E94BC0560910F026F5F8FE092E00E94A3
:10179000DC0803C084E30E94BC058091990588237E
:1017A00009F4E0C0109299058091A505282F2F70AB
:1017B00030E0322F22279091A105292B309324026B
:1017C00020932302807FB0E18B9FC00111242091E0
:1017D000A205822B90932602809325028091A60574
:1017E000282F2F7030E0322F22279091A305292B2C
:1017F0003093280220932702807FE0E18E9FC00172
:1018000011242091A405822B90932A02809329020F
:101810008091AB05282F2F7030E0322F2227909136
:10182000A705292B30932C0220932B02807FF0E117
:101830008F9FC00111242091A805822B90932E0226
:1018400080932D028091AC05282F2F7030E0322F2D
:1018500022279091A905292B3093300220932F0243
:10186000807F20E1829FC00111242091AA05822B54
:101870009093320280933102D090580252E5E52EC7
:1018800051E0F52E03E212E0A12CB12CD8016D91AC
:101890007C91DD20D1F069527540882777FD8095D5
:1018A000982F0E94DD0E23EC35EF48E85FE30E949D
:1018B000450F0E94AA0E6115B8E07B0714F06FEF88
:1018C00077E0F7017183608324C080E090E00E949C
:1018D000DB0E23E830EC4AE25FE30E94450F0E94F2
:1018E000AA0EAB014D5B52409501220F331F4F33BF
:1018F000564028F4F901EA5DFE4F71836083F901D7
:10190000EA5DFE4F40815181F901E85CFD4F518352
:101910004083EFEFAE1ABE0AF2E0EF0EF11C0E5F4D
:101920001F4F28E0A216B10409F0B0CF70930B024C
:1019300060930A02DD20B1F00F900F900F900F908E
:10194000DF91CF911F910F91FF90EF90DF90CF909B
:10195000BF90AF909F908F907F906F905F904F90CF
:101960000C9426030F900F900F900F90DF91CF9162
:101970001F910F91FF90EF90DF90CF90BF90AF90AD
:101980009F908F907F906F905F904F9008951F92DF
:101990000F920FB60F9211242F933F938F939F9323
:1019A000AF93BF938091B7059091B805A091B90509
:1019B000B091BA053091B60523E0230F2D3720F4FE
:1019C0000196A11DB11D05C026E8230F0296A11D99
:1019D000B11D2093B6058093B7059093B805A093E9
:1019E000B905B093BA058091BB059091BC05A09153
:1019F000BD05B091BE050196A11DB11D8093BB052B
:101A00009093BC05A093BD05B093BE05BF91AF9167
:101A10009F918F913F912F910F900FBE0F901F902C
:101A200018953FB7F8948091BB059091BC05A091A3
:101A3000BD05B091BE0526B5A89B05C02F3F19F086
:101A40000196A11DB11D3FBF6627782F892F9A2FC0
:101A5000620F711D811D911D42E0660F771F881F67
:101A6000991F4A95D1F70895CF92DF92EF92FF9296
:101A7000CF93DF936B017C010E94110DEB01C11428
:101A8000D104E104F10489F00E94A90E0E94110D15
:101A90006C1B7D0B683E734090F381E0C81AD1083F
:101AA000E108F108C851DC4FEACFDF91CF91FF90F8
:101AB000EF90DF90CF9008958230910538F0880F35
:101AC000991F880F991F05970197F1F7089578944A
:101AD00084B5826084BD84B5816084BD85B5826033
:101AE00085BD85B5816085BDEEE6F0E080818160D1
:101AF0008083E1E8F0E010828081826080838081D1
:101B000081608083E0E8F0E0808181608083E1EBA8
:101B1000F0E0808184608083E0EBF0E08081816090
:101B20008083EAE7F0E08081846080838081826046
:101B3000808380818160808380818068808310922F
:101B4000C10008951F93CF93DF93182FEB0161E03D
:101B50000E942A0E209711F460E004C0CF3FD10507
:101B600039F461E0812FDF91CF911F910C94630EC6
:101B7000E12FF0E0EA58FF4FE491E330F9F048F448
:101B8000E130B9F0E230A1F584B5806284BDC8BD12
:101B900034C0E730E9F0E83019F1E43049F58091DC
:101BA0008000806280938000D0938B00C0938A0075
:101BB00024C084B5806884BDC7BD1FC080918000EB
:101BC000806880938000D0938900C093880015C0FE
:101BD0008091B00080688093B000C093B3000DC0C6
:101BE0008091B00080628093B000C093B40005C0C3
:101BF000C038D1050CF0B5CFAFCFDF91CF911F9199
:101C00000895833081F028F4813099F08230A1F07A
:101C100008958730A9F08830B9F08430D1F48091EC
:101C200080008F7D03C0809180008F77809380003B
:101C3000089584B58F7702C084B58F7D84BD0895E3
:101C40008091B0008F7703C08091B0008F7D80932A
:101C5000B0000895CF93DF9390E0FC01E657FF4F6B
:101C60002491FC01E256FF4F8491882349F190E0D2
:101C7000880F991FFC01E454FF4FA591B4918E5435
:101C80009F4FFC01C591D4919FB7611108C0F89492
:101C90008C91209582238C93888182230AC06230A4
:101CA00051F4F8948C91322F309583238C93888152
:101CB000822B888304C0F8948C91822B8C939FBFD5
:101CC000DF91CF9108950F931F93CF93DF931F92CE
:101CD000CDB7DEB7282F30E0F901EA58FF4F8491E5
:101CE000F901E657FF4F1491F901E256FF4F0491B5
:101CF0000023C9F0882321F069830E94010E6981C5
:101D0000E02FF0E0EE0FFF1FEE54FF4FA591B491CE
:101D10009FB7F8948C91611103C01095812301C085
:101D2000812B8C939FBF0F90DF91CF911F910F91CB
:101D3000089508950E94670D0E94990E0E94D4098B
:101D4000C0E0D0E00E945D0A2097E1F30E9400000D
:101D5000F9CF089504D06894B1118DC0089570D062
:101D600088F09F5790F0B92F9927B751A0F0D1F084
:101D7000660F771F881F991F1AF0BA95C9F712C00E
:101D8000B13081F077D0B1E0089574C0672F782F1B
:101D90008827B85F39F0B93FCCF38695779567957A
:101DA000B395D9F73EF490958095709561957F4FE6
:101DB0008F4F9F4F0895E89409C097FB3EF490958C
:101DC0008095709561957F4F8F4F9F4F9923A9F014
:101DD000F92F96E9BB279395F695879577956795A3
:101DE000B795F111F8CFFAF4BB0F11F460FF1BC0E7
:101DF0006F5F7F4F8F4F9F4F16C0882311F096E97A
:101E000011C0772321F09EE8872F762F05C0662327
:101E100071F096E8862F70E060E02AF09A95660FE0
:101E2000771F881FDAF7880F9695879597F9089599
:101E300057FD9058440F551F59F05F3F71F047957B
:101E4000880F97FB991F61F09F3F79F08795089560
:101E5000121613061406551FF2CF4695F1DF08C07F
:101E6000161617061806991FF1CF8695710561059C
:101E700008940895E894BB2766277727CB0197F944
:101E8000089566D008F48FEF08950BD09CC08DD0D4
:101E900028F092D018F0952309F07EC083C0112459
:101EA000EACFC6DFA0F3959FD1F3950F50E0551F01
:101EB000629FF001729FBB27F00DB11D639FAA279F
:101EC000F00DB11DAA1F649F6627B00DA11D661FEE
:101ED000829F2227B00DA11D621F739FB00DA11D0F
:101EE000621F839FA00D611D221F749F3327A00DC9
:101EF000611D231F849F600D211D822F762F6A2F65
:101F000011249F5750408AF0E1F088234AF0EE0FE9
:101F1000FF1FBB1F661F771F881F91505040A9F7F6
:101F20009E3F510570F038C0A6CF5F3FECF3983E5E
:101F3000DCF3869577956795B795F795E7959F5F5D
:101F4000C1F7FE2B880F911D9695879597F90895F7
:101F5000990F0008550FAA0BE0E8FEEF16161706BA
:101F6000E807F907C0F012161306E407F50798F022
:101F7000621B730B840B950B39F40A2661F0232B3B
:101F8000242B252B21F408950A2609F4A140A695B7
:101F90008FEF811D811D089597F99F6780E870E09C
:101FA00060E008959FEF80EC089500240A941616CF
:101FB000170618060906089500240A941216130637
:101FC000140605060895092E0394000C11F48823C5
:101FD00052F0BB0F40F4BF2B11F460FF04C06F5FE1
:101FE0007F4F8F4F9F4F0895EE0FFF1F0590F49185
:101FF000E02D09940E940510A59F900DB49F900DAF
:10200000A49F800D911D11240895A29FB001B39F3C
:10201000C001A39F700D811D1124911DB29F700DF1
:10202000811D1124911D0895DC01CB01FC01F9995A
:10203000FECF06C0F2BDE1BDF89A319600B40D9214
:1020400041505040B8F70895F999FECF92BD81BD37
:10205000F89A992780B50895DC01CB0103C02D9132
:102060000E94371041505040D0F70895262FF9991B
:10207000FECF1FBA92BD81BD20BD0FB6F894FA9A6B
:0C208000F99A0FBE01960895F894FFCF66
:10208C0001DC05DC05C003DC05DC05DC05DC05DC5E
:10209C0005DC05DC05DC05DC05DC05DC05DC05DC2C
:1020AC00050132000000DC05DC05C003DC05DC05A5
:1020BC00DC05DC05DC05DC05DC05DC05DC05DC050C
:1020CC00DC05DC05DC0508C5976E7FA9BBFEFF00AF
:00000001FF
